{
  "contractName": "Memory",
  "abi": [
    {
      "inputs": [],
      "stateMutability": "nonpayable",
      "type": "constructor"
    },
    {
      "anonymous": false,
      "inputs": [
        {
          "indexed": false,
          "internalType": "uint256",
          "name": "id",
          "type": "uint256"
        },
        {
          "indexed": false,
          "internalType": "string",
          "name": "hash",
          "type": "string"
        },
        {
          "indexed": false,
          "internalType": "bool",
          "name": "completed",
          "type": "bool"
        }
      ],
      "name": "ImageUploaded",
      "type": "event"
    },
    {
      "anonymous": false,
      "inputs": [
        {
          "indexed": false,
          "internalType": "uint256",
          "name": "id",
          "type": "uint256"
        }
      ],
      "name": "completed1Image",
      "type": "event"
    },
    {
      "anonymous": false,
      "inputs": [],
      "name": "startOverEvent",
      "type": "event"
    },
    {
      "inputs": [],
      "name": "countImageTotal",
      "outputs": [
        {
          "internalType": "uint256",
          "name": "",
          "type": "uint256"
        }
      ],
      "stateMutability": "view",
      "type": "function",
      "constant": true
    },
    {
      "inputs": [
        {
          "internalType": "uint256",
          "name": "_id",
          "type": "uint256"
        }
      ],
      "name": "complete1Image",
      "outputs": [],
      "stateMutability": "nonpayable",
      "type": "function"
    },
    {
      "inputs": [],
      "name": "startOver",
      "outputs": [],
      "stateMutability": "nonpayable",
      "type": "function"
    },
    {
      "inputs": [],
      "name": "getImages",
      "outputs": [
        {
          "components": [
            {
              "internalType": "uint256",
              "name": "id",
              "type": "uint256"
            },
            {
              "internalType": "string",
              "name": "hash",
              "type": "string"
            },
            {
              "internalType": "bool",
              "name": "completed",
              "type": "bool"
            }
          ],
          "internalType": "struct Memory.Image[]",
          "name": "",
          "type": "tuple[]"
        }
      ],
      "stateMutability": "view",
      "type": "function",
      "constant": true
    },
    {
      "inputs": [
        {
          "internalType": "string",
          "name": "_imageHash",
          "type": "string"
        }
      ],
      "name": "uploadImage",
      "outputs": [],
      "stateMutability": "nonpayable",
      "type": "function"
    }
  ],
  "bytecode": "0x60806040526000805534801561001457600080fd5b50610cf1806100246000396000f3fe608060405234801561001057600080fd5b50600436106100575760003560e01c8063114983341461005c578063b1b658101461007a578063bff1aca114610096578063cc0e1f66146100b4578063e740c8a0146100be575b600080fd5b6100646100da565b60405161007191906109bd565b60405180910390f35b610094600480360381019061008f919061080d565b610303565b005b61009e61038f565b6040516100ab91906109df565b60405180910390f35b6100bc610395565b005b6100d860048036038101906100d391906107cc565b61046e565b005b606060006100e66105f4565b90506000815167ffffffffffffffff81111561012b577f4e487b7100000000000000000000000000000000000000000000000000000000600052604160045260246000fd5b60405190808252806020026020018201604052801561016457816020015b610151610689565b8152602001906001900390816101495790505b5090506000600190505b825181116102fa5760016000846001846101889190610aff565b815181106101bf577f4e487b7100000000000000000000000000000000000000000000000000000000600052603260045260246000fd5b60200260200101518152602001908152602001600020604051806060016040529081600082015481526020016001820180546101fa90610b8b565b80601f016020809104026020016040519081016040528092919081815260200182805461022690610b8b565b80156102735780601f1061024857610100808354040283529160200191610273565b820191906000526020600020905b81548152906001019060200180831161025657829003601f168201915b505050505081526020016002820160009054906101000a900460ff161515151581525050826001836102a59190610aff565b815181106102dc577f4e487b7100000000000000000000000000000000000000000000000000000000600052603260045260246000fd5b602002602001018190525080806102f290610bbd565b91505061016e565b50809250505090565b6001600082815260200190815260200160002060020160009054906101000a900460ff16156001600083815260200190815260200160002060020160006101000a81548160ff0219169083151502179055507f55706c2f450c4a520069d64f9c9cdab96ccc8e6a577248e969c2758e584a51628160405161038491906109df565b60405180910390a150565b60005481565b600061039f6105f4565b90506000600190505b8151811161043e57600060016000846001856103c49190610aff565b815181106103fb577f4e487b7100000000000000000000000000000000000000000000000000000000600052603260045260246000fd5b6020026020010151815260200190815260200160002060020160006101000a81548160ff021916908315150217905550808061043690610bbd565b9150506103a8565b507fc5c13b4bd9931da230390d8709de48a0c285023f19a36c7c7c549d947590948760405160405180910390a150565b600081511161047c57600080fd5b600073ffffffffffffffffffffffffffffffffffffffff163373ffffffffffffffffffffffffffffffffffffffff1614156104b657600080fd5b6000808154809291906104c890610bbd565b9190505550600260003373ffffffffffffffffffffffffffffffffffffffff1673ffffffffffffffffffffffffffffffffffffffff16815260200190815260200160002060005490806001815401808255809150506001900390600052602060002001600090919091909150556040518060600160405280600054815260200182815260200160001515815250600160008054815260200190815260200160002060008201518160000155602082015181600101908051906020019061058f9291906106ac565b5060408201518160020160006101000a81548160ff0219169083151502179055509050507fc4373ccc79d055530032b6afed20c75fa8497d311d56d2803223d2c2474b14406000548260006040516105e9939291906109fa565b60405180910390a150565b6060600260003373ffffffffffffffffffffffffffffffffffffffff1673ffffffffffffffffffffffffffffffffffffffff16815260200190815260200160002080548060200260200160405190810160405280929190818152602001828054801561067f57602002820191906000526020600020905b81548152602001906001019080831161066b575b5050505050905090565b604051806060016040528060008152602001606081526020016000151581525090565b8280546106b890610b8b565b90600052602060002090601f0160209004810192826106da5760008555610721565b82601f106106f357805160ff1916838001178555610721565b82800160010185558215610721579182015b82811115610720578251825591602001919060010190610705565b5b50905061072e9190610732565b5090565b5b8082111561074b576000816000905550600101610733565b5090565b600061076261075d84610a69565b610a38565b90508281526020810184848401111561077a57600080fd5b610785848285610b49565b509392505050565b600082601f83011261079e57600080fd5b81356107ae84826020860161074f565b91505092915050565b6000813590506107c681610ca4565b92915050565b6000602082840312156107de57600080fd5b600082013567ffffffffffffffff8111156107f857600080fd5b6108048482850161078d565b91505092915050565b60006020828403121561081f57600080fd5b600061082d848285016107b7565b91505092915050565b6000610842838361094f565b905092915050565b600061085582610aa9565b61085f8185610acc565b93508360208202850161087185610a99565b8060005b858110156108ad578484038952815161088e8582610836565b945061089983610abf565b925060208a01995050600181019050610875565b50829750879550505050505092915050565b6108c881610b33565b82525050565b6108d781610b33565b82525050565b60006108e882610ab4565b6108f28185610add565b9350610902818560208601610b58565b61090b81610c93565b840191505092915050565b600061092182610ab4565b61092b8185610aee565b935061093b818560208601610b58565b61094481610c93565b840191505092915050565b6000606083016000830151610967600086018261099f565b506020830151848203602086015261097f82826108dd565b915050604083015161099460408601826108bf565b508091505092915050565b6109a881610b3f565b82525050565b6109b781610b3f565b82525050565b600060208201905081810360008301526109d7818461084a565b905092915050565b60006020820190506109f460008301846109ae565b92915050565b6000606082019050610a0f60008301866109ae565b8181036020830152610a218185610916565b9050610a3060408301846108ce565b949350505050565b6000604051905081810181811067ffffffffffffffff82111715610a5f57610a5e610c64565b5b8060405250919050565b600067ffffffffffffffff821115610a8457610a83610c64565b5b601f19601f8301169050602081019050919050565b6000819050602082019050919050565b600081519050919050565b600081519050919050565b6000602082019050919050565b600082825260208201905092915050565b600082825260208201905092915050565b600082825260208201905092915050565b6000610b0a82610b3f565b9150610b1583610b3f565b925082821015610b2857610b27610c06565b5b828203905092915050565b60008115159050919050565b6000819050919050565b82818337600083830152505050565b60005b83811015610b76578082015181840152602081019050610b5b565b83811115610b85576000848401525b50505050565b60006002820490506001821680610ba357607f821691505b60208210811415610bb757610bb6610c35565b5b50919050565b6000610bc882610b3f565b91507fffffffffffffffffffffffffffffffffffffffffffffffffffffffffffffffff821415610bfb57610bfa610c06565b5b600182019050919050565b7f4e487b7100000000000000000000000000000000000000000000000000000000600052601160045260246000fd5b7f4e487b7100000000000000000000000000000000000000000000000000000000600052602260045260246000fd5b7f4e487b7100000000000000000000000000000000000000000000000000000000600052604160045260246000fd5b6000601f19601f8301169050919050565b610cad81610b3f565b8114610cb857600080fd5b5056fea26469706673582212207fc61dd2d75a639a045a3c67b3ad2946241d45061b82c1b2cf486a96eec8787c64736f6c63430008000033",
  "immutableReferences": {},
  "source": "// SPDX-License-Identifier: MIT\npragma solidity >=0.4.22 <0.9.0;\ncontract Memory {\n    uint public countImageTotal = 0;\n    struct Image {\n        uint id;\n        string hash;\n        bool completed;\n    }\n    mapping (uint => Image) private images;\n    mapping(address=> uint[]) private authorToImage;\n    event ImageUploaded(\n        uint id,\n        string hash,\n        bool completed\n    );\n    event startOverEvent(\n        \n    );\n    event completed1Image(\n        uint id\n    );\n    constructor()  {\n\n    }\n    function getAuthorToImage() private view returns (uint[] memory){\n        return authorToImage[msg.sender];\n    }\n    function complete1Image(uint _id) public {\n        images[_id].completed = !images[_id].completed;\n        emit completed1Image(_id);\n    }\n    function startOver() public {\n        uint[] memory ImageOfThisAuthor=getAuthorToImage();\n        for (uint i = 1;i<=ImageOfThisAuthor.length;i++ ){\n            images[ImageOfThisAuthor[i-1]].completed = false ;\n        }\n        emit startOverEvent();\n\n\n    }\n    function getImages() public view returns ( Image[] memory ){\n        // Image[] memory i;\n        // return i;\n        uint[] memory ImageOfThisAuthor=getAuthorToImage();\n        Image[] memory ImageForArray = new Image[](ImageOfThisAuthor.length);\n        for (uint i = 1;i<=ImageOfThisAuthor.length;i++ ){\n            ImageForArray[i-1] = images[ImageOfThisAuthor[i-1]];\n        }\n        return (ImageForArray);\n    }\n   \n    function uploadImage(string memory _imageHash) public {\n    // Make sure the video hash exists\n    require(bytes(_imageHash).length>0);\n    \n    // Make sure uploader address exists\n    require(msg.sender!=address(0));\n\n    // Increment video id\n    \n    countImageTotal++;\n    authorToImage[msg.sender].push(countImageTotal);\n    // Add video to the contract\n    images[countImageTotal] = Image(countImageTotal,_imageHash,false);\n    // Trigger an event\n    emit ImageUploaded(countImageTotal, _imageHash, false);\n  }\n\n}",
  "sourcePath": "/Users/nguyenthithuthao/Desktop/ethereum/MemoryGame/src/contracts/Memory.sol",
  "compiler": {
    "name": "solc",
    "version": "0.8.0+commit.c7dfd78e.Emscripten.clang"
  },
  "schemaVersion": "3.4.1",
  "updatedAt": "2021-07-15T02:16:57.599Z",
  "networkType": "ethereum",
  "devdoc": {
    "kind": "dev",
    "methods": {},
    "version": 1
  },
  "userdoc": {
    "kind": "user",
    "methods": {},
    "version": 1
  }
}